{
  "contractName": "WyvernExchange",
  "abi": [
    {
      "constant": true,
      "inputs": [],
      "name": "name",
      "outputs": [
        {
          "name": "",
          "type": "string"
        }
      ],
      "payable": false,
      "stateMutability": "view",
      "type": "function"
    },
    {
      "constant": true,
      "inputs": [],
      "name": "tokenTransferProxy",
      "outputs": [
        {
          "name": "",
          "type": "address"
        }
      ],
      "payable": false,
      "stateMutability": "view",
      "type": "function"
    },
    {
      "constant": true,
      "inputs": [
        {
          "name": "target",
          "type": "address"
        },
        {
          "name": "calldata",
          "type": "bytes"
        },
        {
          "name": "extradata",
          "type": "bytes"
        }
      ],
      "name": "staticCall",
      "outputs": [
        {
          "name": "result",
          "type": "bool"
        }
      ],
      "payable": false,
      "stateMutability": "view",
      "type": "function"
    },
    {
      "constant": false,
      "inputs": [
        {
          "name": "newMinimumMakerProtocolFee",
          "type": "uint256"
        }
      ],
      "name": "changeMinimumMakerProtocolFee",
      "outputs": [],
      "payable": false,
      "stateMutability": "nonpayable",
      "type": "function"
    },
    {
      "constant": false,
      "inputs": [
        {
          "name": "newMinimumTakerProtocolFee",
          "type": "uint256"
        }
      ],
      "name": "changeMinimumTakerProtocolFee",
      "outputs": [],
      "payable": false,
      "stateMutability": "nonpayable",
      "type": "function"
    },
    {
      "constant": true,
      "inputs": [
        {
          "name": "array",
          "type": "bytes"
        },
        {
          "name": "desired",
          "type": "bytes"
        },
        {
          "name": "mask",
          "type": "bytes"
        }
      ],
      "name": "guardedArrayReplace",
      "outputs": [
        {
          "name": "",
          "type": "bytes"
        }
      ],
      "payable": false,
      "stateMutability": "pure",
      "type": "function"
    },
    {
      "constant": true,
      "inputs": [],
      "name": "minimumTakerProtocolFee",
      "outputs": [
        {
          "name": "",
          "type": "uint256"
        }
      ],
      "payable": false,
      "stateMutability": "view",
      "type": "function"
    },
    {
      "constant": true,
      "inputs": [],
      "name": "codename",
      "outputs": [
        {
          "name": "",
          "type": "string"
        }
      ],
      "payable": false,
      "stateMutability": "view",
      "type": "function"
    },
    {
      "constant": true,
      "inputs": [
        {
          "name": "addr",
          "type": "address"
        }
      ],
      "name": "testCopyAddress",
      "outputs": [
        {
          "name": "",
          "type": "bytes"
        }
      ],
      "payable": false,
      "stateMutability": "pure",
      "type": "function"
    },
    {
      "constant": true,
      "inputs": [
        {
          "name": "arrToCopy",
          "type": "bytes"
        }
      ],
      "name": "testCopy",
      "outputs": [
        {
          "name": "",
          "type": "bytes"
        }
      ],
      "payable": false,
      "stateMutability": "pure",
      "type": "function"
    },
    {
      "constant": true,
      "inputs": [
        {
          "name": "addrs",
          "type": "address[7]"
        },
        {
          "name": "uints",
          "type": "uint256[9]"
        },
        {
          "name": "feeMethod",
          "type": "uint8"
        },
        {
          "name": "side",
          "type": "uint8"
        },
        {
          "name": "saleKind",
          "type": "uint8"
        },
        {
          "name": "howToCall",
          "type": "uint8"
        },
        {
          "name": "calldata",
          "type": "bytes"
        },
        {
          "name": "replacementPattern",
          "type": "bytes"
        },
        {
          "name": "staticExtradata",
          "type": "bytes"
        }
      ],
      "name": "calculateCurrentPrice_",
      "outputs": [
        {
          "name": "",
          "type": "uint256"
        }
      ],
      "payable": false,
      "stateMutability": "view",
      "type": "function"
    },
    {
      "constant": false,
      "inputs": [
        {
          "name": "newProtocolFeeRecipient",
          "type": "address"
        }
      ],
      "name": "changeProtocolFeeRecipient",
      "outputs": [],
      "payable": false,
      "stateMutability": "nonpayable",
      "type": "function"
    },
    {
      "constant": true,
      "inputs": [],
      "name": "version",
      "outputs": [
        {
          "name": "",
          "type": "string"
        }
      ],
      "payable": false,
      "stateMutability": "view",
      "type": "function"
    },
    {
      "constant": true,
      "inputs": [
        {
          "name": "buyCalldata",
          "type": "bytes"
        },
        {
          "name": "buyReplacementPattern",
          "type": "bytes"
        },
        {
          "name": "sellCalldata",
          "type": "bytes"
        },
        {
          "name": "sellReplacementPattern",
          "type": "bytes"
        }
      ],
      "name": "orderCalldataCanMatch",
      "outputs": [
        {
          "name": "",
          "type": "bool"
        }
      ],
      "payable": false,
      "stateMutability": "pure",
      "type": "function"
    },
    {
      "constant": true,
      "inputs": [
        {
          "name": "addrs",
          "type": "address[7]"
        },
        {
          "name": "uints",
          "type": "uint256[9]"
        },
        {
          "name": "feeMethod",
          "type": "uint8"
        },
        {
          "name": "side",
          "type": "uint8"
        },
        {
          "name": "saleKind",
          "type": "uint8"
        },
        {
          "name": "howToCall",
          "type": "uint8"
        },
        {
          "name": "calldata",
          "type": "bytes"
        },
        {
          "name": "replacementPattern",
          "type": "bytes"
        },
        {
          "name": "staticExtradata",
          "type": "bytes"
        },
        {
          "name": "v",
          "type": "uint8"
        },
        {
          "name": "r",
          "type": "bytes32"
        },
        {
          "name": "s",
          "type": "bytes32"
        }
      ],
      "name": "validateOrder_",
      "outputs": [
        {
          "name": "",
          "type": "bool"
        }
      ],
      "payable": false,
      "stateMutability": "view",
      "type": "function"
    },
    {
      "constant": true,
      "inputs": [
        {
          "name": "side",
          "type": "uint8"
        },
        {
          "name": "saleKind",
          "type": "uint8"
        },
        {
          "name": "basePrice",
          "type": "uint256"
        },
        {
          "name": "extra",
          "type": "uint256"
        },
        {
          "name": "listingTime",
          "type": "uint256"
        },
        {
          "name": "expirationTime",
          "type": "uint256"
        }
      ],
      "name": "calculateFinalPrice",
      "outputs": [
        {
          "name": "",
          "type": "uint256"
        }
      ],
      "payable": false,
      "stateMutability": "view",
      "type": "function"
    },
    {
      "constant": true,
      "inputs": [],
      "name": "protocolFeeRecipient",
      "outputs": [
        {
          "name": "",
          "type": "address"
        }
      ],
      "payable": false,
      "stateMutability": "view",
      "type": "function"
    },
    {
      "constant": true,
      "inputs": [
        {
          "name": "addrs",
          "type": "address[7]"
        },
        {
          "name": "uints",
          "type": "uint256[9]"
        },
        {
          "name": "feeMethod",
          "type": "uint8"
        },
        {
          "name": "side",
          "type": "uint8"
        },
        {
          "name": "saleKind",
          "type": "uint8"
        },
        {
          "name": "howToCall",
          "type": "uint8"
        },
        {
          "name": "calldata",
          "type": "bytes"
        },
        {
          "name": "replacementPattern",
          "type": "bytes"
        },
        {
          "name": "staticExtradata",
          "type": "bytes"
        }
      ],
      "name": "hashOrder_",
      "outputs": [
        {
          "name": "",
          "type": "bytes32"
        }
      ],
      "payable": false,
      "stateMutability": "pure",
      "type": "function"
    },
    {
      "constant": true,
      "inputs": [
        {
          "name": "addrs",
          "type": "address[14]"
        },
        {
          "name": "uints",
          "type": "uint256[18]"
        },
        {
          "name": "feeMethodsSidesKindsHowToCalls",
          "type": "uint8[8]"
        },
        {
          "name": "calldataBuy",
          "type": "bytes"
        },
        {
          "name": "calldataSell",
          "type": "bytes"
        },
        {
          "name": "replacementPatternBuy",
          "type": "bytes"
        },
        {
          "name": "replacementPatternSell",
          "type": "bytes"
        },
        {
          "name": "staticExtradataBuy",
          "type": "bytes"
        },
        {
          "name": "staticExtradataSell",
          "type": "bytes"
        }
      ],
      "name": "ordersCanMatch_",
      "outputs": [
        {
          "name": "",
          "type": "bool"
        }
      ],
      "payable": false,
      "stateMutability": "view",
      "type": "function"
    },
    {
      "constant": false,
      "inputs": [
        {
          "name": "addrs",
          "type": "address[7]"
        },
        {
          "name": "uints",
          "type": "uint256[9]"
        },
        {
          "name": "feeMethod",
          "type": "uint8"
        },
        {
          "name": "side",
          "type": "uint8"
        },
        {
          "name": "saleKind",
          "type": "uint8"
        },
        {
          "name": "howToCall",
          "type": "uint8"
        },
        {
          "name": "calldata",
          "type": "bytes"
        },
        {
          "name": "replacementPattern",
          "type": "bytes"
        },
        {
          "name": "staticExtradata",
          "type": "bytes"
        },
        {
          "name": "orderbookInclusionDesired",
          "type": "bool"
        }
      ],
      "name": "approveOrder_",
      "outputs": [],
      "payable": false,
      "stateMutability": "nonpayable",
      "type": "function"
    },
    {
      "constant": true,
      "inputs": [],
      "name": "registry",
      "outputs": [
        {
          "name": "",
          "type": "address"
        }
      ],
      "payable": false,
      "stateMutability": "view",
      "type": "function"
    },
    {
      "constant": true,
      "inputs": [],
      "name": "minimumMakerProtocolFee",
      "outputs": [
        {
          "name": "",
          "type": "uint256"
        }
      ],
      "payable": false,
      "stateMutability": "view",
      "type": "function"
    },
    {
      "constant": true,
      "inputs": [
        {
          "name": "addrs",
          "type": "address[7]"
        },
        {
          "name": "uints",
          "type": "uint256[9]"
        },
        {
          "name": "feeMethod",
          "type": "uint8"
        },
        {
          "name": "side",
          "type": "uint8"
        },
        {
          "name": "saleKind",
          "type": "uint8"
        },
        {
          "name": "howToCall",
          "type": "uint8"
        },
        {
          "name": "calldata",
          "type": "bytes"
        },
        {
          "name": "replacementPattern",
          "type": "bytes"
        },
        {
          "name": "staticExtradata",
          "type": "bytes"
        }
      ],
      "name": "hashToSign_",
      "outputs": [
        {
          "name": "",
          "type": "bytes32"
        }
      ],
      "payable": false,
      "stateMutability": "pure",
      "type": "function"
    },
    {
      "constant": true,
      "inputs": [
        {
          "name": "",
          "type": "bytes32"
        }
      ],
      "name": "cancelledOrFinalized",
      "outputs": [
        {
          "name": "",
          "type": "bool"
        }
      ],
      "payable": false,
      "stateMutability": "view",
      "type": "function"
    },
    {
      "constant": true,
      "inputs": [],
      "name": "owner",
      "outputs": [
        {
          "name": "",
          "type": "address"
        }
      ],
      "payable": false,
      "stateMutability": "view",
      "type": "function"
    },
    {
      "constant": true,
      "inputs": [],
      "name": "exchangeToken",
      "outputs": [
        {
          "name": "",
          "type": "address"
        }
      ],
      "payable": false,
      "stateMutability": "view",
      "type": "function"
    },
    {
      "constant": false,
      "inputs": [
        {
          "name": "addrs",
          "type": "address[7]"
        },
        {
          "name": "uints",
          "type": "uint256[9]"
        },
        {
          "name": "feeMethod",
          "type": "uint8"
        },
        {
          "name": "side",
          "type": "uint8"
        },
        {
          "name": "saleKind",
          "type": "uint8"
        },
        {
          "name": "howToCall",
          "type": "uint8"
        },
        {
          "name": "calldata",
          "type": "bytes"
        },
        {
          "name": "replacementPattern",
          "type": "bytes"
        },
        {
          "name": "staticExtradata",
          "type": "bytes"
        },
        {
          "name": "v",
          "type": "uint8"
        },
        {
          "name": "r",
          "type": "bytes32"
        },
        {
          "name": "s",
          "type": "bytes32"
        }
      ],
      "name": "cancelOrder_",
      "outputs": [],
      "payable": false,
      "stateMutability": "nonpayable",
      "type": "function"
    },
    {
      "constant": false,
      "inputs": [
        {
          "name": "addrs",
          "type": "address[14]"
        },
        {
          "name": "uints",
          "type": "uint256[18]"
        },
        {
          "name": "feeMethodsSidesKindsHowToCalls",
          "type": "uint8[8]"
        },
        {
          "name": "calldataBuy",
          "type": "bytes"
        },
        {
          "name": "calldataSell",
          "type": "bytes"
        },
        {
          "name": "replacementPatternBuy",
          "type": "bytes"
        },
        {
          "name": "replacementPatternSell",
          "type": "bytes"
        },
        {
          "name": "staticExtradataBuy",
          "type": "bytes"
        },
        {
          "name": "staticExtradataSell",
          "type": "bytes"
        },
        {
          "name": "vs",
          "type": "uint8[2]"
        },
        {
          "name": "rssMetadata",
          "type": "bytes32[5]"
        }
      ],
      "name": "atomicMatch_",
      "outputs": [],
      "payable": true,
      "stateMutability": "payable",
      "type": "function"
    },
    {
      "constant": true,
      "inputs": [
        {
          "name": "addrs",
          "type": "address[7]"
        },
        {
          "name": "uints",
          "type": "uint256[9]"
        },
        {
          "name": "feeMethod",
          "type": "uint8"
        },
        {
          "name": "side",
          "type": "uint8"
        },
        {
          "name": "saleKind",
          "type": "uint8"
        },
        {
          "name": "howToCall",
          "type": "uint8"
        },
        {
          "name": "calldata",
          "type": "bytes"
        },
        {
          "name": "replacementPattern",
          "type": "bytes"
        },
        {
          "name": "staticExtradata",
          "type": "bytes"
        }
      ],
      "name": "validateOrderParameters_",
      "outputs": [
        {
          "name": "",
          "type": "bool"
        }
      ],
      "payable": false,
      "stateMutability": "view",
      "type": "function"
    },
    {
      "constant": true,
      "inputs": [],
      "name": "INVERSE_BASIS_POINT",
      "outputs": [
        {
          "name": "",
          "type": "uint256"
        }
      ],
      "payable": false,
      "stateMutability": "view",
      "type": "function"
    },
    {
      "constant": true,
      "inputs": [
        {
          "name": "addrs",
          "type": "address[14]"
        },
        {
          "name": "uints",
          "type": "uint256[18]"
        },
        {
          "name": "feeMethodsSidesKindsHowToCalls",
          "type": "uint8[8]"
        },
        {
          "name": "calldataBuy",
          "type": "bytes"
        },
        {
          "name": "calldataSell",
          "type": "bytes"
        },
        {
          "name": "replacementPatternBuy",
          "type": "bytes"
        },
        {
          "name": "replacementPatternSell",
          "type": "bytes"
        },
        {
          "name": "staticExtradataBuy",
          "type": "bytes"
        },
        {
          "name": "staticExtradataSell",
          "type": "bytes"
        }
      ],
      "name": "calculateMatchPrice_",
      "outputs": [
        {
          "name": "",
          "type": "uint256"
        }
      ],
      "payable": false,
      "stateMutability": "view",
      "type": "function"
    },
    {
      "constant": true,
      "inputs": [
        {
          "name": "",
          "type": "bytes32"
        }
      ],
      "name": "approvedOrders",
      "outputs": [
        {
          "name": "",
          "type": "bool"
        }
      ],
      "payable": false,
      "stateMutability": "view",
      "type": "function"
    },
    {
      "constant": false,
      "inputs": [
        {
          "name": "newOwner",
          "type": "address"
        }
      ],
      "name": "transferOwnership",
      "outputs": [],
      "payable": false,
      "stateMutability": "nonpayable",
      "type": "function"
    },
    {
      "inputs": [
        {
          "name": "registryAddress",
          "type": "address"
        },
        {
          "name": "tokenTransferProxyAddress",
          "type": "address"
        },
        {
          "name": "tokenAddress",
          "type": "address"
        },
        {
          "name": "protocolFeeAddress",
          "type": "address"
        }
      ],
      "payable": false,
      "stateMutability": "nonpayable",
      "type": "constructor"
    },
    {
      "anonymous": false,
      "inputs": [
        {
          "indexed": true,
          "name": "hash",
          "type": "bytes32"
        },
        {
          "indexed": false,
          "name": "exchange",
          "type": "address"
        },
        {
          "indexed": true,
          "name": "maker",
          "type": "address"
        },
        {
          "indexed": false,
          "name": "taker",
          "type": "address"
        },
        {
          "indexed": false,
          "name": "makerRelayerFee",
          "type": "uint256"
        },
        {
          "indexed": false,
          "name": "takerRelayerFee",
          "type": "uint256"
        },
        {
          "indexed": false,
          "name": "makerProtocolFee",
          "type": "uint256"
        },
        {
          "indexed": false,
          "name": "takerProtocolFee",
          "type": "uint256"
        },
        {
          "indexed": true,
          "name": "feeRecipient",
          "type": "address"
        },
        {
          "indexed": false,
          "name": "feeMethod",
          "type": "uint8"
        },
        {
          "indexed": false,
          "name": "side",
          "type": "uint8"
        },
        {
          "indexed": false,
          "name": "saleKind",
          "type": "uint8"
        },
        {
          "indexed": false,
          "name": "target",
          "type": "address"
        }
      ],
      "name": "OrderApprovedPartOne",
      "type": "event"
    },
    {
      "anonymous": false,
      "inputs": [
        {
          "indexed": true,
          "name": "hash",
          "type": "bytes32"
        },
        {
          "indexed": false,
          "name": "howToCall",
          "type": "uint8"
        },
        {
          "indexed": false,
          "name": "calldata",
          "type": "bytes"
        },
        {
          "indexed": false,
          "name": "replacementPattern",
          "type": "bytes"
        },
        {
          "indexed": false,
          "name": "staticTarget",
          "type": "address"
        },
        {
          "indexed": false,
          "name": "staticExtradata",
          "type": "bytes"
        },
        {
          "indexed": false,
          "name": "paymentToken",
          "type": "address"
        },
        {
          "indexed": false,
          "name": "basePrice",
          "type": "uint256"
        },
        {
          "indexed": false,
          "name": "extra",
          "type": "uint256"
        },
        {
          "indexed": false,
          "name": "listingTime",
          "type": "uint256"
        },
        {
          "indexed": false,
          "name": "expirationTime",
          "type": "uint256"
        },
        {
          "indexed": false,
          "name": "salt",
          "type": "uint256"
        },
        {
          "indexed": false,
          "name": "orderbookInclusionDesired",
          "type": "bool"
        }
      ],
      "name": "OrderApprovedPartTwo",
      "type": "event"
    },
    {
      "anonymous": false,
      "inputs": [
        {
          "indexed": true,
          "name": "hash",
          "type": "bytes32"
        }
      ],
      "name": "OrderCancelled",
      "type": "event"
    },
    {
      "anonymous": false,
      "inputs": [
        {
          "indexed": false,
          "name": "buyHash",
          "type": "bytes32"
        },
        {
          "indexed": false,
          "name": "sellHash",
          "type": "bytes32"
        },
        {
          "indexed": true,
          "name": "maker",
          "type": "address"
        },
        {
          "indexed": true,
          "name": "taker",
          "type": "address"
        },
        {
          "indexed": false,
          "name": "price",
          "type": "uint256"
        },
        {
          "indexed": true,
          "name": "metadata",
          "type": "bytes32"
        }
      ],
      "name": "OrdersMatched",
      "type": "event"
    },
    {
      "anonymous": false,
      "inputs": [
        {
          "indexed": true,
          "name": "previousOwner",
          "type": "address"
        },
        {
          "indexed": true,
          "name": "newOwner",
          "type": "address"
        }
      ],
      "name": "OwnershipTransferred",
      "type": "event"
    }
  ],
  "bytecode": "0x60806040526000805460ff19168155600681905560075534801561002257600080fd5b50604051608080614d2583398101604090815281516020830151918301516060909301516000805460028054600160a060020a03958616600160a060020a0319918216179091556003805496861696821696909617909555600180549685169686169690961790955560088054928416929094169190911790925533166101000261010060a860020a031992831681179092169091179055614c5c806100c96000396000f3006080604052600436106101875763ffffffff60e060020a60003504166306fdde03811461018c5780630eefdbad1461021657806310796a471461024757806314350c24146103005780631a6b13e21461031a578063239e83df1461033257806328a8ee681461040757806331e631991461042e5780633464af6a146104435780633e1e292a146104645780633f67ee0d146104bd578063514f03301461060257806354fd4d5014610623578063562b2ebc1461063857806360bef33a1461074b57806363d36c0b1461089f57806364df049e146108cc57806371d02b38146108e157806372593b4c14610a265780637966686814610c2d5780637b10399914610d765780637ccefc5214610d8b5780637d76698114610da05780638076f00514610ee55780638da5cb5b14610efd578063a25eb5d914610f12578063a8a41c7014610f27578063ab834bab1461107b578063ca595b9a146112be578063cae6047f14611403578063d537e13114611418578063e57d4adb1461161f578063f2fde38b14611637575b600080fd5b34801561019857600080fd5b506101a1611658565b6040805160208082528351818301528351919283929083019185019080838360005b838110156101db5781810151838201526020016101c3565b50505050905090810190601f1680156102085780820380516001836020036101000a031916815260200191505b509250505060405180910390f35b34801561022257600080fd5b5061022b61168f565b60408051600160a060020a039092168252519081900360200190f35b34801561025357600080fd5b5060408051602060046024803582810135601f81018590048502860185019096528585526102ec958335600160a060020a031695369560449491939091019190819084018382808284375050604080516020601f89358b018035918201839004830284018301909452808352979a99988101979196509182019450925082915084018382808284375094975061169e9650505050505050565b604080519115158252519081900360200190f35b34801561030c57600080fd5b5061031860043561170d565b005b34801561032657600080fd5b50610318600435611732565b34801561033e57600080fd5b506040805160206004803580820135601f81018490048402850184019095528484526101a194369492936024939284019190819084018382808284375050604080516020601f89358b018035918201839004830284018301909452808352979a99988101979196509182019450925082915084018382808284375050604080516020601f89358b018035918201839004830284018301909452808352979a9998810197919650918201945092508291508401838280828437509497506117579650505050505050565b34801561041357600080fd5b5061041c61176e565b60408051918252519081900360200190f35b34801561043a57600080fd5b506101a1611774565b34801561044f57600080fd5b506101a1600160a060020a03600435166117ab565b34801561047057600080fd5b506040805160206004803580820135601f81018490048402850184019095528484526101a19436949293602493928401919081908401838280828437509497506117eb9650505050505050565b3480156104c957600080fd5b506040805160e081810190925261041c91369160049160e49190839060079083908390808284375050604080516101208181019092529497969581810195945092506009915083908390808284375050604080516020601f60808901358a0180359182018390048302840183018552818452979a60ff8a3581169b848c013582169b9687013582169a6060880135909216995091975090955060a090940193820191819084018382808284375050604080516020601f89358b018035918201839004830284018301909452808352979a99988101979196509182019450925082915084018382808284375050604080516020601f89358b018035918201839004830284018301909452808352979a9998810197919650918201945092508291508401838280828437509497506118319650505050505050565b34801561060e57600080fd5b50610318600160a060020a036004351661197f565b34801561062f57600080fd5b506101a16119ce565b34801561064457600080fd5b506040805160206004803580820135601f81018490048402850184019095528484526102ec94369492936024939284019190819084018382808284375050604080516020601f89358b018035918201839004830284018301909452808352979a99988101979196509182019450925082915084018382808284375050604080516020601f89358b018035918201839004830284018301909452808352979a99988101979196509182019450925082915084018382808284375050604080516020601f89358b018035918201839004830284018301909452808352979a999881019791965091820194509250829150840183828082843750949750611a059650505050505050565b34801561075757600080fd5b506040805160e08181019092526102ec91369160049160e49190839060079083908390808284375050604080516101208181019092529497969581810195945092506009915083908390808284375050604080516020601f60808901358a0180359182018390048302840183018552818452979a60ff8a3581169b848c013582169b9687013582169a6060880135909216995091975090955060a090940193820191819084018382808284375050604080516020601f89358b018035918201839004830284018301909452808352979a99988101979196509182019450925082915084018382808284375050604080516020601f89358b018035918201839004830284018301909452808352979a9998810197919650918201945092508291508401838280828437509497505050833560ff1694505050602082013591604001359050611a43565b3480156108ab57600080fd5b5061041c60ff6004358116906024351660443560643560843560a435611c32565b3480156108d857600080fd5b5061022b611c4d565b3480156108ed57600080fd5b506040805160e081810190925261041c91369160049160e49190839060079083908390808284375050604080516101208181019092529497969581810195945092506009915083908390808284375050604080516020601f60808901358a0180359182018390048302840183018552818452979a60ff8a3581169b848c013582169b9687013582169a6060880135909216995091975090955060a090940193820191819084018382808284375050604080516020601f89358b018035918201839004830284018301909452808352979a99988101979196509182019450925082915084018382808284375050604080516020601f89358b018035918201839004830284018301909452808352979a999881019791965091820194509250829150840183828082843750949750611c5c9650505050505050565b348015610a3257600080fd5b50604080516101c08181019092526102ec9136916004916101c491908390600e9083908390808284375050604080516102408181019092529497969581810195945092506012915083908390808284375050604080516101008181019092529497969581810195945092506008915083908390808284375050604080516020601f88358a0180359182018390048302840183019094528083529699989781019691955091820193509150819084018382808284375050604080516020601f89358b018035918201839004830284018301909452808352979a99988101979196509182019450925082915084018382808284375050604080516020601f89358b018035918201839004830284018301909452808352979a99988101979196509182019450925082915084018382808284375050604080516020601f89358b018035918201839004830284018301909452808352979a99988101979196509182019450925082915084018382808284375050604080516020601f89358b018035918201839004830284018301909452808352979a99988101979196509182019450925082915084018382808284375050604080516020601f89358b018035918201839004830284018301909452808352979a999881019791965091820194509250829150840183828082843750949750611d9c9650505050505050565b348015610c3957600080fd5b506040805160e081810190925261031891369160049160e49190839060079083908390808284375050604080516101208181019092529497969581810195945092506009915083908390808284375050604080516020601f60808901358a0180359182018390048302840183018552818452979a60ff8a3581169b848c013582169b9687013582169a6060880135909216995091975090955060a090940193820191819084018382808284375050604080516020601f89358b018035918201839004830284018301909452808352979a99988101979196509182019450925082915084018382808284375050604080516020601f89358b018035918201839004830284018301909452808352979a999881019791965091820194509250829150840183828082843750949750505050913515159250612188915050565b348015610d8257600080fd5b5061022b6122dd565b348015610d9757600080fd5b5061041c6122ec565b348015610dac57600080fd5b506040805160e081810190925261041c91369160049160e49190839060079083908390808284375050604080516101208181019092529497969581810195945092506009915083908390808284375050604080516020601f60808901358a0180359182018390048302840183018552818452979a60ff8a3581169b848c013582169b9687013582169a6060880135909216995091975090955060a090940193820191819084018382808284375050604080516020601f89358b018035918201839004830284018301909452808352979a99988101979196509182019450925082915084018382808284375050604080516020601f89358b018035918201839004830284018301909452808352979a9998810197919650918201945092508291508401838280828437509497506122f29650505050505050565b348015610ef157600080fd5b506102ec600435612432565b348015610f0957600080fd5b5061022b612447565b348015610f1e57600080fd5b5061022b61245b565b348015610f3357600080fd5b506040805160e081810190925261031891369160049160e49190839060079083908390808284375050604080516101208181019092529497969581810195945092506009915083908390808284375050604080516020601f60808901358a0180359182018390048302840183018552818452979a60ff8a3581169b848c013582169b9687013582169a6060880135909216995091975090955060a090940193820191819084018382808284375050604080516020601f89358b018035918201839004830284018301909452808352979a99988101979196509182019450925082915084018382808284375050604080516020601f89358b018035918201839004830284018301909452808352979a9998810197919650918201945092508291508401838280828437509497505050833560ff169450505060208201359160400135905061246a565b604080516101c08181019092526103189136916004916101c491908390600e9083908390808284375050604080516102408181019092529497969581810195945092506012915083908390808284375050604080516101008181019092529497969581810195945092506008915083908390808284375050604080516020601f88358a0180359182018390048302840183019094528083529699989781019691955091820193509150819084018382808284375050604080516020601f89358b018035918201839004830284018301909452808352979a99988101979196509182019450925082915084018382808284375050604080516020601f89358b018035918201839004830284018301909452808352979a99988101979196509182019450925082915084018382808284375050604080516020601f89358b018035918201839004830284018301909452808352979a99988101979196509182019450925082915084018382808284375050604080516020601f89358b018035918201839004830284018301909452808352979a99988101979196509182019450925082915084018382808284375050604080516020601f89358b018035918201839004830284018301909452808352979a999881019791965091820194509250829150840183828082843750506040805180820182529598979681810196955093506002925084915083908082843750506040805160a08181019092529497969581810195945092506005915083908390808284375093965061264095505050505050565b3480156112ca57600080fd5b506040805160e08181019092526102ec91369160049160e49190839060079083908390808284375050604080516101208181019092529497969581810195945092506009915083908390808284375050604080516020601f60808901358a0180359182018390048302840183018552818452979a60ff8a3581169b848c013582169b9687013582169a6060880135909216995091975090955060a090940193820191819084018382808284375050604080516020601f89358b018035918201839004830284018301909452808352979a99988101979196509182019450925082915084018382808284375050604080516020601f89358b018035918201839004830284018301909452808352979a999881019791965091820194509250829150840183828082843750949750612a569650505050505050565b34801561140f57600080fd5b5061041c612bae565b34801561142457600080fd5b50604080516101c081810190925261041c9136916004916101c491908390600e9083908390808284375050604080516102408181019092529497969581810195945092506012915083908390808284375050604080516101008181019092529497969581810195945092506008915083908390808284375050604080516020601f88358a0180359182018390048302840183019094528083529699989781019691955091820193509150819084018382808284375050604080516020601f89358b018035918201839004830284018301909452808352979a99988101979196509182019450925082915084018382808284375050604080516020601f89358b018035918201839004830284018301909452808352979a99988101979196509182019450925082915084018382808284375050604080516020601f89358b018035918201839004830284018301909452808352979a99988101979196509182019450925082915084018382808284375050604080516020601f89358b018035918201839004830284018301909452808352979a99988101979196509182019450925082915084018382808284375050604080516020601f89358b018035918201839004830284018301909452808352979a999881019791965091820194509250829150840183828082843750949750612bb49650505050505050565b34801561162b57600080fd5b506102ec600435612f90565b34801561164357600080fd5b50610318600160a060020a0360043516612fa5565b60408051808201909152601781527f50726f6a6563742057797665726e2045786368616e6765000000000000000000602082015281565b600354600160a060020a031681565b60006060600083518551016040519080825280601f01601f1916602001820160405280156116d6578160200160208202803883390190505b50915050602081016116e8818561304d565b90506116f4818661304d565b506000604051835160208501895afa9695505050505050565b60005433600160a060020a03908116610100909204161461172d57600080fd5b600655565b60005433600160a060020a03908116610100909204161461175257600080fd5b600755565b6060611764848484613093565b50825b9392505050565b60075481565b60408051808201909152600c81527f4c616d62746f6e20576f726d0000000000000000000000000000000000000000602082015281565b6040805160148082528183019092526060918291600091602082016102808038833901905050915050602081016117e2818561321a565b50909392505050565b606080600083516040519080825280601f01601f19166020018201604052801561181f578160200160208202803883390190505b50915050602081016117e2818561304d565b604080516102e0810182528a51600160a060020a0390811682526020808d01518216818401528c8401518216838501528b51606080850191909152908c01516080840152928b015160a08301528a83015160c0830152918b015190911660e08201526000906119719061010081018a60018111156118ab57fe5b81526020018960018111156118bc57fe5b81526020018860018111156118cd57fe5b815260808d0151600160a060020a031660208201526040018760018111156118f157fe5b8152602081018790526040810186905260a0808e0151600160a060020a0316606083015260808201869052018c600660209081029190910151600160a060020a031682526080808e01519183019190915260a0808e0151604084015260c08e0151606084015260e08e0151918301919091526101008d015191015261323a565b9a9950505050505050505050565b60005433600160a060020a03908116610100909204161461199f57600080fd5b6008805473ffffffffffffffffffffffffffffffffffffffff1916600160a060020a0392909216919091179055565b60408051808201909152600381527f322e320000000000000000000000000000000000000000000000000000000000602082015281565b60008084511115611a1b57611a1b858486613093565b600082511115611a3057611a30838684613093565b611a3a8584613270565b95945050505050565b6000611a4d614b6c565b604080516102e08101909152808f600060209081029190910151600160a060020a03168252018f600160209081029190910151600160a060020a03168252018f600260209081029190910151600160a060020a03168252018e6000602090810291909101518252018e6001602090810291909101518252018e6002602090810291909101518252018e6003602090810291909101518252018f60036020020151600160a060020a031681526020018d6001811115611b0757fe5b81526020018c6001811115611b1857fe5b81526020018b6001811115611b2957fe5b81526020018f60046020020151600160a060020a031681526020018a6001811115611b5057fe5b8152602081018a9052604081018990526060018f60056020020151600160a060020a031681526020018781526020018f6006600781101515611b8e57fe5b60209081029190910151600160a060020a03168252018e6004602090810291909101518252018e6005602090810291909101518252018e6006602090810291909101518252018e6007602090810291909101518252018e6008602002015190529050611c20611bfc826132d4565b6040805160608101825260ff8916815260208101889052908101869052839061331f565b9e9d5050505050505050505050505050565b6000611c42878787878787613414565b979650505050505050565b600854600160a060020a031681565b604080516102e0810182528a51600160a060020a0390811682526020808d01518216818401528c8401518216838501528b51606080850191909152908c01516080840152928b015160a08301528a83015160c0830152918b015190911660e08201526000906119719061010081018a6001811115611cd657fe5b8152602001896001811115611ce757fe5b8152602001886001811115611cf857fe5b815260808d0151600160a060020a03166020820152604001876001811115611d1c57fe5b8152602081018790526040810186905260a0808e0151600160a060020a0316606083015260808201869052018c600660209081029190910151600160a060020a031682526080808e01519183019190915260a0808e0151604084015260c08e0151606084015260e08e0151918301919091526101008d01519101526134a7565b6000611da6614b6c565b611dae614b6c565b604080516102e08101909152808d600060209081029190910151600160a060020a03168252018d600160209081029190910151600160a060020a03168252018d600260209081029190910151600160a060020a03168252018c6000602090810291909101518252018c6001602090810291909101518252018c6002602090810291909101518252018c6003602090810291909101518252018d600360209081029190910151600160a060020a03168252018b6000602002015160ff166001811115611e7557fe5b6001811115611e8057fe5b81526020018b6001602002015160ff166001811115611e9b57fe5b6001811115611ea657fe5b81526020018b6002602002015160ff166001811115611ec157fe5b6001811115611ecc57fe5b815260808e0151600160a060020a0316602082015260608c015160409091019060ff166001811115611efa57fe5b6001811115611f0557fe5b8152602081018b90526040810189905260a0808f0151600160a060020a0316606083015260808201889052018d600660209081029190910151600160a060020a03168252018c6004602090810291909101518252018c6005602090810291909101518252018c6006602090810291909101518252018c6007602090810291909101518252018c600860200201519052604080516102e08101909152909250808d600760209081029190910151600160a060020a03168252018d600860209081029190910151600160a060020a03168252018d600960209081029190910151600160a060020a03168252018c6009602090810291909101518252018c600a602090810291909101518252018c600b602090810291909101518252018c600c602090810291909101518252018d600a60209081029190910151600160a060020a03168252018b6004602002015160ff16600181111561205e57fe5b600181111561206957fe5b81526020018b6005602002015160ff16600181111561208457fe5b600181111561208f57fe5b81526020018b6006602002015160ff1660018111156120aa57fe5b60018111156120b557fe5b81526101608e0151600160a060020a0316602082015260e08c015160409091019060ff1660018111156120e457fe5b60018111156120ef57fe5b8152602081018a9052604081018890526101808e0151600160a060020a031660608201526080810186905260a0018d600d60209081029190910151600160a060020a031682526101a08e0151908201526101c08d015160408201526101e08d015160608201526102008d015160808201526102208d015160a09091015290506121788282613696565b9c9b505050505050505050505050565b612190614b6c565b604080516102e0810182528c51600160a060020a0390811682526020808f01518216818401528e8401518216838501528d51606080850191909152908e01516080840152928d015160a08301528c83015160c0830152918d015190911660e082015261010081018a600181111561220357fe5b815260200189600181111561221457fe5b815260200188600181111561222557fe5b815260808d0151600160a060020a0316602082015260400187600181111561224957fe5b8152602081018790526040810186905260a0808e0151600160a060020a0316606083015260808201869052018c600660209081029190910151600160a060020a031682526080808e01519183019190915260a0808e0151604084015260c08e0151606084015260e08e0151918301919091526101008d015191015290506122d08183613870565b5050505050505050505050565b600254600160a060020a031681565b60065481565b604080516102e0810182528a51600160a060020a0390811682526020808d01518216818401528c8401518216838501528b51606080850191909152908c01516080840152928b015160a08301528a83015160c0830152918b015190911660e08201526000906119719061010081018a600181111561236c57fe5b815260200189600181111561237d57fe5b815260200188600181111561238e57fe5b815260808d0151600160a060020a031660208201526040018760018111156123b257fe5b8152602081018790526040810186905260a0808e0151600160a060020a0316606083015260808201869052018c600660209081029190910151600160a060020a031682526080808e01519183019190915260a0808e0151604084015260c08e0151606084015260e08e0151918301919091526101008d01519101526132d4565b60046020526000908152604090205460ff1681565b6000546101009004600160a060020a031681565b600154600160a060020a031681565b604080516102e0810190915261263290808e600060209081029190910151600160a060020a03168252018e600160209081029190910151600160a060020a03168252018e600260209081029190910151600160a060020a03168252018d6000602090810291909101518252018d6001602090810291909101518252018d6002602090810291909101518252018d6003602090810291909101518252018e60036020020151600160a060020a031681526020018c600181111561252857fe5b81526020018b600181111561253957fe5b81526020018a600181111561254a57fe5b815260808f0151600160a060020a0316602082015260400189600181111561256e57fe5b815260208101899052604081018890526060018e60056020020151600160a060020a031681526020018681526020018e60066007811015156125ac57fe5b60209081029190910151600160a060020a03168252018d6004602090810291909101518252018d6005602090810291909101518252018d6006602090810291909101518252018d6007602090810291909101518252018d6008602090810291909101519091526040805160608101825260ff881681529182018690528101849052613c3e565b505050505050505050505050565b604080516102e0810182528c51600160a060020a0390811682526020808f01518216818401528e8401518216838501528d51606080850191909152908e01516080840152928d015160a08301528c83015160c0830152918d015190911660e082015289516122d0919061010082019060ff1660018111156126bd57fe5b60018111156126c857fe5b81526020018b6001602002015160ff1660018111156126e357fe5b60018111156126ee57fe5b81526020018b6002602002015160ff16600181111561270957fe5b600181111561271457fe5b815260808e0151600160a060020a0316602082015260608c015160409091019060ff16600181111561274257fe5b600181111561274d57fe5b8152602081018b90526040810189905260a0808f0151600160a060020a0316606083015260808201889052018d600660209081029190910151600160a060020a03168252018c6004602090810291909101518252018c6005602090810291909101518252018c6006602090810291909101518252018c6007602090810291909101518252018c6008602002015190526040805160608101909152808560006020908102919091015160ff168252018460006020908102919091015182520184600160200201519052604080516102e08101909152808f600760209081029190910151600160a060020a03168252018f600860209081029190910151600160a060020a03168252018f600960209081029190910151600160a060020a03168252018e6009602090810291909101518252018e600a602090810291909101518252018e600b602090810291909101518252018e600c602090810291909101518252018f600a60209081029190910151600160a060020a03168252018d6004602002015160ff1660018111156128dc57fe5b60018111156128e757fe5b81526020018d6005602002015160ff16600181111561290257fe5b600181111561290d57fe5b81526020018d6006602002015160ff16600181111561292857fe5b600181111561293357fe5b81526020018f600b60209081029190910151600160a060020a03168252018d6007602002015160ff16600181111561296757fe5b600181111561297257fe5b8152602081018c9052604081018a90526060018f600c6020020151600160a060020a031681526020018781526020018f600d600e811015156129b057fe5b60209081029190910151600160a060020a03168252018e600d602090810291909101518252018e600e602090810291909101518252018e600f602090810291909101518252018e6010602090810291909101518252018e6011602002015190526040805160608101909152808760016020908102919091015160ff1682520186600260209081029190910151825201866003602002015190528560046020020151613cb5565b6000612a60614b6c565b604080516102e0810182528c51600160a060020a0390811682526020808f01518216818401528e8401518216838501528d51606080850191909152908e01516080840152928d015160a08301528c83015160c0830152918d015190911660e082015261010081018a6001811115612ad357fe5b8152602001896001811115612ae457fe5b8152602001886001811115612af557fe5b815260808d0151600160a060020a03166020820152604001876001811115612b1957fe5b8152602081018790526040810186905260a0808e0151600160a060020a0316606083015260808201869052018c600660209081029190910151600160a060020a031682526080808e01519183019190915260a0808e0151604084015260c08e0151606084015260e08e0151918301919091526101008d01519101529050612b9f81614295565b9b9a5050505050505050505050565b61271081565b6000612bbe614b6c565b612bc6614b6c565b604080516102e08101909152808d600060209081029190910151600160a060020a03168252018d600160209081029190910151600160a060020a03168252018d600260209081029190910151600160a060020a03168252018c6000602090810291909101518252018c6001602090810291909101518252018c6002602090810291909101518252018c6003602090810291909101518252018d600360209081029190910151600160a060020a03168252018b6000602002015160ff166001811115612c8d57fe5b6001811115612c9857fe5b81526020018b6001602002015160ff166001811115612cb357fe5b6001811115612cbe57fe5b81526020018b6002602002015160ff166001811115612cd957fe5b6001811115612ce457fe5b815260808e0151600160a060020a0316602082015260608c015160409091019060ff166001811115612d1257fe5b6001811115612d1d57fe5b8152602081018b90526040810189905260a0808f0151600160a060020a0316606083015260808201889052018d600660209081029190910151600160a060020a03168252018c6004602090810291909101518252018c6005602090810291909101518252018c6006602090810291909101518252018c6007602090810291909101518252018c600860200201519052604080516102e08101909152909250808d600760209081029190910151600160a060020a03168252018d600860209081029190910151600160a060020a03168252018d600960209081029190910151600160a060020a03168252018c6009602090810291909101518252018c600a602090810291909101518252018c600b602090810291909101518252018c600c602090810291909101518252018d600a60209081029190910151600160a060020a03168252018b6004602002015160ff166001811115612e7657fe5b6001811115612e8157fe5b81526020018b6005602002015160ff166001811115612e9c57fe5b6001811115612ea757fe5b81526020018b6006602002015160ff166001811115612ec257fe5b6001811115612ecd57fe5b81526101608e0151600160a060020a0316602082015260e08c015160409091019060ff166001811115612efc57fe5b6001811115612f0757fe5b8152602081018a9052604081018890526101808e0151600160a060020a031660608201526080810186905260a0018d600d60209081029190910151600160a060020a031682526101a08e0151908201526101c08d015160408201526101e08d015160608201526102008d015160808201526102208d015160a09091015290506121788282614329565b60056020526000908152604090205460ff1681565b60005433600160a060020a039081166101009092041614612fc557600080fd5b600160a060020a0381161515612fda57600080fd5b60008054604051600160a060020a038085169361010090930416917f8be0079c531659141344cd1fd0a4f28419497f9722a3daafe3b4186f6b6457e091a360008054600160a060020a039092166101000274ffffffffffffffffffffffffffffffffffffffff0019909216919091179055565b6000808251111561308a57815180602001830160208401855b60018383101415613081578151815260209182019101613066565b50505092909201915b50815b92915050565b6000806000845186511415156130a857600080fd5b83518651146130b657600080fd5b85516020900492506020808402925083908304146130d057fe5b5060005b8281101561310057600101602081028481015186820151918801805192821691199092161790526130d4565b60008311156131305782905080600101602002808501518187015181168289015182191617828901525050613212565b50805b855181101561321257848181518110151561314a57fe5b90602001015160f860020a900460f860020a02848281518110151561316b57fe5b90602001015160f860020a900460f860020a0216868281518110151561318d57fe5b90602001015160f860020a900460f860020a0285838151811015156131ae57fe5b90602001015160f860020a900460f860020a0260ff60f860020a0218161786828151811015156131da57fe5b9060200101907effffffffffffffffffffffffffffffffffffffffffffffffffffffffffffff1916908160001a905350600101613133565b505050505050565b600160a060020a03166c0100000000000000000000000002815260140190565b6000613268826101200151836101400151846102400151856102600151866102800151876102a00151613414565b90505b919050565b81518151600091600191811480831461328c57600092506132ca565b600160208701838101602088015b6002848385100114156132c55780518351146132b95760009650600093505b6020928301920161329a565b505050505b5090949350505050565b60006132df826134a7565b604080517f19457468657265756d205369676e6564204d6573736167653a0a3332000000008152601c8101929092525190819003603c0190209050919050565b600061332a83614295565b151561333857506000611767565b60008481526004602052604090205460ff161561335757506000611767565b60008481526005602052604090205460ff161561337657506001611767565b602080840151835184830151604080870151815160008082528188018085528c905260ff909516818401526060810193909352608083015251600160a060020a039093169360019360a0808401949293601f19830193908390039091019190865af11580156133e9573d6000803e3d6000fd5b50505060206040510351600160a060020a0316141561340a57506001611767565b5060009392505050565b6000808087600181111561342457fe5b14156134325785915061349c565b600187600181111561344057fe5b141561349c5761346b61345c8661345742886143b9565b6143cb565b61346685876143b9565b6143f4565b9050600188600181111561347b57fe5b14156134925761348b86826143b9565b915061349c565b61348b8682614409565b509695505050505050565b600080606060006134b785614416565b9250826040519080825280601f01601f1916602001820160405280156134e7578160200160208202803883390190505b5091506020820190506134fe81866000015161321a565b905061350e81866020015161321a565b905061351e81866040015161321a565b905061352e818660600151614436565b905061353e818660800151614436565b905061354e818660a00151614436565b905061355e818660c00151614436565b905061356e818660e0015161321a565b905061358a81866101000151600181111561358557fe5b61443e565b90506135a181866101200151600181111561358557fe5b90506135b881866101400151600181111561358557fe5b90506135c98186610160015161321a565b90506135e081866101800151600181111561358557fe5b90506135f181866101a0015161304d565b905061360281866101c0015161304d565b905061361381866101e0015161321a565b90506136248186610200015161304d565b90506136358186610220015161321a565b905061364681866102400151614436565b905061365781866102600151614436565b905061366881866102800151614436565b905061367981866102a00151614436565b905061368a81866102c00151614436565b50506020012092915050565b60008083610120015160018111156136aa57fe5b1480156136c75750600182610120015160018111156136c557fe5b145b80156136f2575081610100015160018111156136df57fe5b83610100015160018111156136f057fe5b145b80156137195750816102200151600160a060020a0316836102200151600160a060020a0316145b801561375357506040820151600160a060020a0316158061375357508260200151600160a060020a03168260400151600160a060020a0316145b801561378d57506040830151600160a060020a0316158061378d57508160200151600160a060020a03168360400151600160a060020a0316145b80156137e8575060e0820151600160a060020a03161580156137bb575060e0830151600160a060020a031615155b806137e8575060e0820151600160a060020a0316158015906137e8575060e0830151600160a060020a0316155b801561380f5750816101600151600160a060020a0316836101600151600160a060020a0316145b801561383a5750816101800151600181111561382757fe5b836101800151600181111561383857fe5b145b80156138555750613855836102800151846102a0015161444b565b80156117675750611767826102800151836102a0015161444b565b60008260200151600160a060020a031633600160a060020a031614151561389657600080fd5b61389f836132d4565b60008181526005602052604090205490915060ff16156138be57600080fd5b600160056000836000191660001916815260200190815260200160002060006101000a81548160ff0219169083151502179055508260e00151600160a060020a03168360200151600160a060020a031682600019167f90c7f9f5b58c15f0f635bfb99f55d3d78fdbef3559e7d8abf5c81052a527662286600001518760400151886060015189608001518a60a001518b60c001518c61010001518d61012001518e61014001518f6101600151604051808b600160a060020a0316600160a060020a031681526020018a600160a060020a0316600160a060020a031681526020018981526020018881526020018781526020018681526020018560018111156139c257fe5b60ff1681526020018460018111156139d657fe5b60ff1681526020018360018111156139ea57fe5b60ff168152600160a060020a039092166020830152506040805191829003019950975050505050505050a480600019167fe55393c778364e440d958b39ac1debd99dcfae3775a8a04d1e79124adf6a2d08846101800151856101a00151866101c00151876101e001518861020001518961022001518a61024001518b61026001518c61028001518d6102a001518e6102c001518e604051808d6001811115613a8e57fe5b60ff16815260200180602001806020018c600160a060020a0316600160a060020a03168152602001806020018b600160a060020a0316600160a060020a031681526020018a81526020018981526020018881526020018781526020018681526020018515151515815260200184810384528f818151815260200191508051906020019080838360005b83811015613b2f578181015183820152602001613b17565b50505050905090810190601f168015613b5c5780820380516001836020036101000a031916815260200191505b5084810383528e818151815260200191508051906020019080838360005b83811015613b92578181015183820152602001613b7a565b50505050905090810190601f168015613bbf5780820380516001836020036101000a031916815260200191505b5084810382528c5181528c516020918201918e019080838360005b83811015613bf2578181015183820152602001613bda565b50505050905090810190601f168015613c1f5780820380516001836020036101000a031916815260200191505b509f5050505050505050505050505050505060405180910390a2505050565b6000613c4a8383614467565b90508260200151600160a060020a031633600160a060020a0316141515613c7057600080fd5b600081815260046020526040808220805460ff191660011790555182917f5152abf959f6564662358c2e52b702259b78bac5ee7842a0f01937e670efcc7d91a2505050565b6000805481908190819081908190819060ff1615613cd257600080fd5b6000805460ff1916600117905560208c0151600160a060020a0390811633919091161415613d1357613d038c614295565b1515613d0e57600080fd5b613d20565b613d1d8c8c614467565b96505b33600160a060020a03168a60200151600160a060020a03161415613d5757613d478a614295565b1515613d5257600080fd5b613d64565b613d618a8a614467565b95505b613d6e8c8b613696565b1515613d7957600080fd5b6101608a0151803b9550935060008511613d9257600080fd5b60008c6101c00151511115613dbb57613dbb8c6101a001518b6101a001518e6101c00151613093565b60008a6101c00151511115613de457613de48a6101a001518d6101a001518c6101c00151613093565b613df88c6101a001518b6101a00151613270565b1515613e0357600080fd5b6002546020808c0151604080517fc4552791000000000000000000000000000000000000000000000000000000008152600160a060020a0392831660048201529051919093169263c45527919260248083019391928290030181600087803b158015613e6e57600080fd5b505af1158015613e82573d6000803e3d6000fd5b505050506040513d6020811015613e9857600080fd5b50519250600160a060020a0383161515613eb157600080fd5b600260009054906101000a9004600160a060020a0316600160a060020a03166397204d8e6040518163ffffffff1660e060020a028152600401602060405180830381600087803b158015613f0457600080fd5b505af1158015613f18573d6000803e3d6000fd5b505050506040513d6020811015613f2e57600080fd5b5051604080517f5c60da1b0000000000000000000000000000000000000000000000000000000081529051600160a060020a0392831692861691635c60da1b9160048083019260209291908290030181600087803b158015613f8f57600080fd5b505af1158015613fa3573d6000803e3d6000fd5b505050506040513d6020811015613fb957600080fd5b5051600160a060020a031614613fce57600080fd5b8291508b60200151600160a060020a031633600160a060020a031614151561400a576000878152600460205260409020805460ff191660011790555b8960200151600160a060020a031633600160a060020a0316141515614043576000868152600460205260409020805460ff191660011790555b61404d8c8b61448b565b905081600160a060020a0316631b0f7ba98b61016001518c61018001518d6101a001516040518463ffffffff1660e060020a0281526004018084600160a060020a0316600160a060020a031681526020018360018111156140aa57fe5b60ff16815260200180602001828103825283818151815260200191508051906020019080838360005b838110156140eb5781810151838201526020016140d3565b50505050905090810190601f1680156141185780820380516001836020036101000a031916815260200191505b50945050505050602060405180830381600087803b15801561413957600080fd5b505af115801561414d573d6000803e3d6000fd5b505050506040513d602081101561416357600080fd5b5051151561417057600080fd5b6101e08c0151600160a060020a0316156141a95761419e8c6101e001518b6101a001518e610200015161169e565b15156141a957600080fd5b6101e08a0151600160a060020a0316156141e2576141d78a6101e001518b6101a001518c610200015161169e565b15156141e257600080fd5b60e08a01518890600160a060020a03161515614202578a60200151614208565b8c602001515b60e08c0151600160a060020a039182169116151561422a578d60200151614230565b8b602001515b604080518b8152602081018b90528082018690529051600160a060020a0392909216917fc4109843e0b7d514e4c093114b863f8e7d8d9a458c372cd51bfe526b588006c99181900360600190a450506000805460ff1916905550505050505050505050565b600030600160a060020a03168260000151600160a060020a03161415156142be5750600061326b565b6142d2826101400151836102a00151614a6b565b15156142e05750600061326b565b600182610100015160018111156142f357fe5b14801561431457506006548260a00151108061431457506007548260c00151105b156143215750600061326b565b506001919050565b600080600061435a846101200151856101400151866102400151876102600151886102800151896102a00151613414565b91506143888561012001518661014001518761024001518861026001518961028001518a6102a00151613414565b90508181101561439757600080fd5b60e0840151600160a060020a031615156143b15780611a3a565b509392505050565b6000828211156143c557fe5b50900390565b60008215156143dc5750600061308d565b508181028183828115156143ec57fe5b041461308d57fe5b6000818381151561440157fe5b049392505050565b8181018281101561308d57fe5b610200810151516101c0820151516101a08301515101016101b001919050565b815260200190565b6000818353505060010190565b6000428310801561176757508115806117675750504210919050565b600080614473846132d4565b905061448081858561331f565b151561176757600080fd5b600080600080600080600080600080600160a060020a03168a6102200151600160a060020a03161415156144c45734156144c457600080fd5b6144ce8b8b614329565b97506000881180156144ed57506102208a0151600160a060020a031615155b1561450b5761450b8a61022001518c602001518c602001518b614a8a565b60e08a0151889750879650600160a060020a031615614827576080808c0151908b0151111561453957600080fd5b60018a6101000151600181111561454c57fe5b14156147f45760c0808c0151908b0151111561456757600080fd5b60008a60600151111561460b5761458d6145858b606001518a6143cb565b6127106143f4565b6102208b0151909550600160a060020a031615156145f2576145af87866143b9565b60e08b0151604051919850600160a060020a03169086156108fc029087906000818181858888f193505050501580156145ec573d6000803e3d6000fd5b5061460b565b61460b8a61022001518b602001518c60e0015188614a8a565b60008a6080015111156146a7576146296145858b608001518a6143cb565b6102208b0151909450600160a060020a0316151561468e5761464b8685614409565b60e08b0151604051919750600160a060020a03169085156108fc029086906000818181858888f19350505050158015614688573d6000803e3d6000fd5b506146a7565b6146a78a61022001518c602001518c60e0015187614a8a565b60008a60a00151111561474b576146c56145858b60a001518a6143cb565b6102208b0151909350600160a060020a03161515614728576146e787846143b9565b600854604051919850600160a060020a03169084156108fc029085906000818181858888f19350505050158015614722573d6000803e3d6000fd5b5061474b565b6102208a015160208b015160085461474b929190600160a060020a031686614a8a565b60008a60c0015111156147ef576147696145858b60c001518a6143cb565b6102208b0151909250600160a060020a031615156147cc5761478b8683614409565b600854604051919750600160a060020a03169083156108fc029084906000818181858888f193505050501580156147c6573d6000803e3d6000fd5b506147ef565b6102208a015160208c01516008546147ef929190600160a060020a031685614a8a565b614822565b61480b8a602001518b60e001518c60600151614b4f565b6148228b602001518b60e001518c60800151614b4f565b6149a8565b6080808b0151908c0151111561483c57600080fd5b60018a6101000151600181111561484f57fe5b141561497a576102208a0151600160a060020a0316151561486f57600080fd5b60c0808b0151908c0151111561488457600080fd5b60008b6060015111156148bd576148a26145858c606001518a6143cb565b94506148bd8a61022001518c602001518d60e0015188614a8a565b60008b6080015111156148f6576148db6145858c608001518a6143cb565b93506148f68a61022001518b602001518d60e0015187614a8a565b60008b60a001511115614938576149146145858c60a001518a6143cb565b6102208b015160208d015160085492955061493892600160a060020a031686614a8a565b60008b60c001511115614822576149566145858c60c001518a6143cb565b6102208b015160208c015160085492945061482292600160a060020a031685614a8a565b6149918b602001518c60e001518d60600151614b4f565b6149a88a602001518c60e001518d60800151614b4f565b6102208a0151600160a060020a03161515614a5c57348611156149ca57600080fd5b8960200151600160a060020a03166108fc889081150290604051600060405180830381858888f19350505050158015614a07573d6000803e3d6000fd5b50614a1234876143b9565b90506000811115614a5c578a60200151600160a060020a03166108fc829081150290604051600060405180830381858888f19350505050158015614a5a573d6000803e3d6000fd5b505b50959998505050505050505050565b600080836001811115614a7a57fe5b1480611767575050600010919050565b6000811115614b4957600354604080517f15dacbea000000000000000000000000000000000000000000000000000000008152600160a060020a0387811660048301528681166024830152858116604483015260648201859052915191909216916315dacbea9160848083019260209291908290030181600087803b158015614b1257600080fd5b505af1158015614b26573d6000803e3d6000fd5b505050506040513d6020811015614b3c57600080fd5b50511515614b4957600080fd5b50505050565b600154614b6790600160a060020a0316848484614a8a565b505050565b604080516102e081018252600080825260208201819052918101829052606081018290526080810182905260a0810182905260c0810182905260e081018290529061010082019081526020016000815260200160008152600060208201819052604090910190815260200160608152602001606081526020016000600160a060020a03168152602001606081526020016000600160a060020a03168152602001600081526020016000815260200160008152602001600081526020016000815250905600a165627a7a72305820fa654407747ae510ed072203b1f978dd34387563ef286e5bf6e847d8f1cdb65a0029",
  "source": "/*\n\n  << Project Wyvern Exchange >>\n\n*/\n\npragma solidity 0.4.23;\n\nimport \"./exchange/Exchange.sol\";\n\n/**\n * @title WyvernExchange\n * @author Project Wyvern Developers\n */\ncontract WyvernExchange is Exchange {\n\n    string public constant name = \"Project Wyvern Exchange\";\n\n    string public constant version = \"2.2\";\n\n    string public constant codename = \"Lambton Worm\";\n\n    /**\n     * @dev Initialize a WyvernExchange instance\n     * @param registryAddress Address of the registry instance which this Exchange instance will use\n     * @param tokenAddress Address of the token used for protocol fees\n     */\n    constructor (ProxyRegistry registryAddress, TokenTransferProxy tokenTransferProxyAddress, ERC20 tokenAddress, address protocolFeeAddress) public {\n        registry = registryAddress;\n        tokenTransferProxy = tokenTransferProxyAddress;\n        exchangeToken = tokenAddress;\n        protocolFeeRecipient = protocolFeeAddress;\n        owner = msg.sender;\n    }\n\n}\n",
  "sourcePath": "/mnt/d/work/wyvern-ethereum/contracts/WyvernExchange.sol",
  "compiler": {
    "name": "solc",
    "version": "0.4.23+commit.124ca40d.Emscripten.clang"
  },
  "schemaVersion": "2.0.0",
  "updatedAt": "2022-07-30T23:14:12.525Z"
}